:1000000019C028C027C001C125C024C0D9C022C042
:1000100035C120C01FC01EC01DC01CC01BC01AC0DF
:1000200019C018C017C016C015C014C013C012C024
:1000300011C010C011241FBECFEFCDBFDFE3DEBF64
:100040002FE3A0E0BFE301C01D92A331B207E1F7A7
:1000500030D135C3D5CF9091150896FFFCCF809352
:10006000180808951F93CF93DF93E82FEE0FEE0F3C
:100070009091003FC82F9923E1F0CC0FCC0FCC0F0B
:10008000CE0F80E0E8DF80E0E6DFDCE0DC0F11E0AF
:100090001C0FEC2FF0E0EE53F9478081DCDFC12F1D
:1000A000D113F5CF80E0D7DF80E0DF91CF911F91B2
:1000B000D2CFCE0F80E0CFDFD5E0DC0F11E01C0FF8
:1000C000EC2FF0E0E659F8478081C5DFC12F1D1302
:1000D000F5CFDF91CF911F9108958091150886FF8C
:1000E000FCCF83E0809314080895CF92DF92EF92C3
:1000F000FF92CF93DF936B017C01C42F88E780933D
:10010000170880E4A8DFD0E0C150F8F084E0C89F71
:10011000F0011124E753F8474081518162817381D6
:1001200080E0C416D506E606F70638F08F5FC41ADD
:10013000D50AE60AF70AD1E0F4CFD11102C0C11105
:1001400002C090DFE1CF8AE0FCCFDF91CF91FF903A
:10015000EF90DF90CF90C1CF0F931F93CF93DF939A
:100160008C0188E78093170880E475DFE8018991A6
:100170008F3F11F077DFFBCFDF91CF911F910F9170
:10018000ACCFCF93DF93D82FC62F88E78093170883
:1001900080E061DF82E25FDF8C2F5DDF83E0C230D1
:1001A00009F08C2F58DF8D2F56DF80E154DF8C2F24
:1001B000806B51DF92DFC093003FDF91CF910895B4
:1001C0001F920F920FB60F9211248F939F93AF93AC
:1001D000BF9381E08093430180910B3F90910C3F4E
:1001E000A0910D3FB0910E3F8093073F9093083F41
:1001F000A093093FB0930A3FBF91AF919F918F9118
:100200000F900FBE0F901F9018951F920F920FB670
:100210000F9211242F938F939F93AF93BF93EF93DC
:10022000FF93E0E0FAE080A191A18093053F9093D5
:10023000063F28E0258380818160808380910B3F89
:1002400090910C3FA0910D3FB0910E3F4496A11D9F
:10025000B11D80930B3F90930C3FA0930D3FB09343
:100260000E3F23B9FF91EF91BF91AF919F918F9175
:100270002F910F900FBE0F901F9018951F920F9205
:100280000FB60F9211248F93EF93FF93E0E0FAE003
:1002900080818E7F808381E083871092053F10925A
:1002A000063FFF91EF918F910F900FBE0F901F901F
:1002B000189588ED97E084BF9093610080911704B2
:1002C00088608093170490E080E094D1873E9F4639
:1002D00079F582E090E08ED18093013F9093023FC8
:1002E00084E090E087D18093033F9093043F88E0BF
:1002F00090E080D1B0E0A0E07C01DD24CC24C0926D
:100300000F3FD092103FE092113FF092123F86E0F3
:1003100090E070D1B0E0A0E08C299D29AE29BF29E2
:1003200080930F3F9093103FA093113FB093123FE3
:100330001092160881E0809313088093150883ECCF
:1003400099E00197F1F700C0000088E78093170853
:1003500080E081DEC5EED7E800EF17E889917BDE0B
:100360000C171D07D9F7B9DE60E080E00ADF88E7E7
:100370008093170880E46FDEC0E880E06CDEC15037
:10038000E1F7ABDE61E080E0FCDE88E780931708F0
:1003900080E461DEC0E882E05EDEC150E1F79DDE10
:1003A00062E080E0EEDE88E78093170880E453DEA9
:1003B00080E051DEC150E1F790DE81E0809347019B
:1003C000809141018111FCCF89E7809340018BE846
:1003D0009AE080934A0190934B0191E090934201FF
:1003E000809113048160809313048AE08093000A53
:1003F00090930A0A20910F3F3091103F4091113F96
:100400005091123FA4E6B0E044D160930B3F70934B
:100410000C3F80930D3F90930E3F80910B3F909146
:100420000C3FA0910D3FB0910E3F8093073F9093FA
:10043000083FA093093FB0930A3F1AE034E6C32E69
:10044000D12CE12CF12CF89480910B3F90910C3F32
:10045000A0910D3FB0910E3F80930F3F9093103FBE
:10046000A093113FB093123FC091053FD091063F3A
:100470008091073F9091083FA091093FB0910A3FBA
:10048000789480900F3F9090103FA090113FB090D3
:10049000123FA5019401281B390B4A0B5B0BCA01C3
:1004A000B901A7019601D3D029013A01C501B401D0
:1004B000A7019601CCD049015A0180920F3F90923A
:1004C000103FA092113FB092123F8091033F909154
:1004D000043FB0E0A0E084159505A605B70520F41B
:1004E0004092033F5092043F209749F09E0150E014
:1004F00040E060E579EA8BEA90E0A9D0E9018091DB
:10050000013F9091023F8C179D0720F4C093013F5B
:10051000D093023F60E081E034DE8AEF97E81CDE92
:100520006091013F7091023F90E080E045E0DDDDA9
:1005300086EF97E811DE6091033F7091043F90E0F1
:1005400080E046E0D2DD82EF97E806DE62E080E000
:1005500018DEBE0190E080E045E0C7DD86EF97E859
:10056000FBDD47E0C501B401C0DD80EF97E8F4DDB5
:10057000CD2B41F567EE7FE690E080E03FD06091C3
:10058000013F7091023F82E090E038D06091033FDC
:100590007091043F84E090E031D060910F3F709102
:1005A000103F86E090E02AD060910F3F7091103F9D
:1005B0008091113F9091123FBC018827992788E0D4
:1005C00090E01CD0179914C0112341F0115087EA14
:1005D00091E60197F1F700C0000035CF1092033F7C
:1005E0001092043F1092013F1092023F1FEFEFCF95
:1005F0001AE0EDCF0BD08081918108950196272FCD
:100600000AD008C003D0808199270895FC01E050EA
:10061000FC4E0895262FFADF0080021611F004D058
:10062000019701970895262FAF93BF93E0E0F0E183
:10063000328131FDFDCFDC01A050BC4E2C932DE961
:1006400024BF23E020830196BF91AF910895A1E2DA
:100650001A2EAA1BBB1BFD010DC0AA1FBB1FEE1F3C
:10066000FF1FA217B307E407F50720F0A21BB30B87
:10067000E40BF50B661F771F881F991F1A9469F703
:1006800060957095809590959B01AC01BD01CF015F
:10069000089509D0A59F900DB49F900DA49F800D43
:1006A000911D11240895A29FB001B39FC001A39F83
:1006B00001D0B29F700D811D1124911D0895F894F1
:0206C000FFCF6A
:1006C2007C1F02200220022002207C1F000000006A
:1006D2000000000000007C1F001F82208220822078
:1006E20082207C00000082208220822082207C1FC7
:1006F2007C0080008000800080007C1F7C008220C3
:10070200822082208220001F7C1F82208220822061
:100712008220001F7C0002000200020002007C1FF7
:100722007C1F82208220822082207C1F7C008220EB
:100732008220822082207C1F000000000000000036
:10074200000000008000803F8000803F8000003F6A
:100752000030000C0003C00030000C00FC3F000120
:1007620080008000003F00003E5149453E00427F2C
:10077200400042615149462141454B311814127FD4
:100782001027454545393C4A49493001710905035D
:100792003649494936064949291E00000000007CB5
:1007A2000418047820100804027F080404783844EE
:1007B20044487F7F020C027F20545454784428100E
:1007C20028440036360000010000000A00000064E0
:1007D200000000E803000010270000A0860100408E
:1007E200420F00A81F2001DA028D14AFA1C80BFF2F
:0D07F2000B0C0EFF0B0C0DFF0F101112FF72
:00000001FF
